{
  "contractName": "bookie",
  "abi": [
    {
      "constant": true,
      "inputs": [
        {
          "name": "",
          "type": "address"
        }
      ],
      "name": "playerInfo",
      "outputs": [
        {
          "name": "amountBet",
          "type": "uint256"
        },
        {
          "name": "teamSelected",
          "type": "uint256"
        }
      ],
      "payable": false,
      "stateMutability": "view",
      "type": "function"
    },
    {
      "constant": true,
      "inputs": [],
      "name": "totalBetsTwo",
      "outputs": [
        {
          "name": "",
          "type": "uint256"
        }
      ],
      "payable": false,
      "stateMutability": "view",
      "type": "function"
    },
    {
      "constant": true,
      "inputs": [],
      "name": "totalBetsOne",
      "outputs": [
        {
          "name": "",
          "type": "uint256"
        }
      ],
      "payable": false,
      "stateMutability": "view",
      "type": "function"
    },
    {
      "constant": true,
      "inputs": [],
      "name": "owner",
      "outputs": [
        {
          "name": "",
          "type": "address"
        }
      ],
      "payable": false,
      "stateMutability": "view",
      "type": "function"
    },
    {
      "constant": true,
      "inputs": [],
      "name": "minimumBet",
      "outputs": [
        {
          "name": "",
          "type": "uint256"
        }
      ],
      "payable": false,
      "stateMutability": "view",
      "type": "function"
    },
    {
      "constant": true,
      "inputs": [
        {
          "name": "",
          "type": "uint256"
        }
      ],
      "name": "players",
      "outputs": [
        {
          "name": "",
          "type": "address"
        }
      ],
      "payable": false,
      "stateMutability": "view",
      "type": "function"
    },
    {
      "inputs": [],
      "payable": false,
      "stateMutability": "nonpayable",
      "type": "constructor"
    },
    {
      "payable": true,
      "stateMutability": "payable",
      "type": "fallback"
    },
    {
      "constant": false,
      "inputs": [],
      "name": "kill",
      "outputs": [],
      "payable": false,
      "stateMutability": "nonpayable",
      "type": "function"
    },
    {
      "constant": true,
      "inputs": [
        {
          "name": "checkPlayer",
          "type": "address"
        }
      ],
      "name": "playerExist",
      "outputs": [
        {
          "name": "",
          "type": "bool"
        }
      ],
      "payable": false,
      "stateMutability": "view",
      "type": "function"
    },
    {
      "constant": false,
      "inputs": [
        {
          "name": "_teamSelected",
          "type": "uint256"
        }
      ],
      "name": "Bet",
      "outputs": [],
      "payable": true,
      "stateMutability": "payable",
      "type": "function"
    },
    {
      "constant": false,
      "inputs": [
        {
          "name": "teamWinner",
          "type": "uint256"
        }
      ],
      "name": "distributePrizes",
      "outputs": [],
      "payable": false,
      "stateMutability": "nonpayable",
      "type": "function"
    },
    {
      "constant": true,
      "inputs": [],
      "name": "AmountOne",
      "outputs": [
        {
          "name": "",
          "type": "uint256"
        }
      ],
      "payable": false,
      "stateMutability": "view",
      "type": "function"
    },
    {
      "constant": true,
      "inputs": [],
      "name": "AmountTwo",
      "outputs": [
        {
          "name": "",
          "type": "uint256"
        }
      ],
      "payable": false,
      "stateMutability": "view",
      "type": "function"
    }
  ],
  "bytecode": "0x608060405234801561001057600080fd5b50336000806101000a81548173ffffffffffffffffffffffffffffffffffffffff021916908373ffffffffffffffffffffffffffffffffffffffff160217905550655af3107a4000600181905550610a5f8061006d6000396000f3fe6080604052600436106100a75760003560e01c80638afadeb5116100645780638afadeb5146101e85780638da5cb5b14610213578063ba8cded71461026a578063c38a8afd14610298578063f71d96cb146102c3578063fff072411461033e576100a7565b806341c0e1b5146100a95780634996d51d146100c05780634b114691146100eb5780635bf6b19f1461015757806365733592146101825780636ca3fc3b146101ad575b005b3480156100b557600080fd5b506100be6103a7565b005b3480156100cc57600080fd5b506100d5610438565b6040518082815260200191505060405180910390f35b3480156100f757600080fd5b5061013a6004803603602081101561010e57600080fd5b81019080803573ffffffffffffffffffffffffffffffffffffffff169060200190929190505050610442565b604051808381526020018281526020019250505060405180910390f35b34801561016357600080fd5b5061016c610466565b6040518082815260200191505060405180910390f35b34801561018e57600080fd5b5061019761046c565b6040518082815260200191505060405180910390f35b3480156101b957600080fd5b506101e6600480360360208110156101d057600080fd5b8101908080359060200190929190505050610476565b005b3480156101f457600080fd5b506101fd61075d565b6040518082815260200191505060405180910390f35b34801561021f57600080fd5b50610228610763565b604051808273ffffffffffffffffffffffffffffffffffffffff1673ffffffffffffffffffffffffffffffffffffffff16815260200191505060405180910390f35b6102966004803603602081101561028057600080fd5b8101908080359060200190929190505050610788565b005b3480156102a457600080fd5b506102ad6108da565b6040518082815260200191505060405180910390f35b3480156102cf57600080fd5b506102fc600480360360208110156102e657600080fd5b81019080803590602001909291905050506108e0565b604051808273ffffffffffffffffffffffffffffffffffffffff1673ffffffffffffffffffffffffffffffffffffffff16815260200191505060405180910390f35b34801561034a57600080fd5b5061038d6004803603602081101561036157600080fd5b81019080803573ffffffffffffffffffffffffffffffffffffffff16906020019092919050505061091c565b604051808215151515815260200191505060405180910390f35b6000809054906101000a900473ffffffffffffffffffffffffffffffffffffffff1673ffffffffffffffffffffffffffffffffffffffff163373ffffffffffffffffffffffffffffffffffffffff161415610436576000809054906101000a900473ffffffffffffffffffffffffffffffffffffffff1673ffffffffffffffffffffffffffffffffffffffff16ff5b565b6000600254905090565b60056020528060005260406000206000915090508060000154908060010154905082565b60035481565b6000600354905090565b61047e6109be565b600080905060008090506000809050600080600080600090505b60048054905081101561058457600481815481106104b257fe5b9060005260206000200160009054906101000a900473ffffffffffffffffffffffffffffffffffffffff16915088600560008473ffffffffffffffffffffffffffffffffffffffff1673ffffffffffffffffffffffffffffffffffffffff168152602001908152602001600020600101541415610577578188886103e8811061053757fe5b602002019073ffffffffffffffffffffffffffffffffffffffff16908173ffffffffffffffffffffffffffffffffffffffff168152505086806001019750505b8080600101915050610498565b50600188141561059d57600354945060025493506105a8565b600254945060035493505b60008090505b868110156106d857600073ffffffffffffffffffffffffffffffffffffffff1688826103e881106105db57fe5b602002015173ffffffffffffffffffffffffffffffffffffffff16146106105787816103e8811061060857fe5b602002015193505b600560008573ffffffffffffffffffffffffffffffffffffffff1673ffffffffffffffffffffffffffffffffffffffff16815260200190815260200160002060000154925087816103e8811061066257fe5b602002015173ffffffffffffffffffffffffffffffffffffffff166108fc612710876127108a028161069057fe5b046127100186028161069e57fe5b049081150290604051600060405180830381858888f193505050501580156106ca573d6000803e3d6000fd5b5080806001019150506105ae565b50600560008273ffffffffffffffffffffffffffffffffffffffff1673ffffffffffffffffffffffffffffffffffffffff16815260200190815260200160002060008082016000905560018201600090555050600060048161073a91906109e2565b506000945060009350600060028190555060006003819055505050505050505050565b60025481565b6000809054906101000a900473ffffffffffffffffffffffffffffffffffffffff1681565b6107913361091c565b1561079b57600080fd5b6001543410156107aa57600080fd5b34600560003373ffffffffffffffffffffffffffffffffffffffff1673ffffffffffffffffffffffffffffffffffffffff1681526020019081526020016000206000018190555080600560003373ffffffffffffffffffffffffffffffffffffffff1673ffffffffffffffffffffffffffffffffffffffff1681526020019081526020016000206001018190555060043390806001815401808255809150509060018203906000526020600020016000909192909190916101000a81548173ffffffffffffffffffffffffffffffffffffffff021916908373ffffffffffffffffffffffffffffffffffffffff1602179055505060018114156108bc57346002600082825401925050819055506108d7565b60028114156108d657346003600082825401925050819055505b5b50565b60015481565b600481815481106108ed57fe5b906000526020600020016000915054906101000a900473ffffffffffffffffffffffffffffffffffffffff1681565b600080600090505b6004805490508110156109b3578273ffffffffffffffffffffffffffffffffffffffff166004828154811061095557fe5b9060005260206000200160009054906101000a900473ffffffffffffffffffffffffffffffffffffffff1673ffffffffffffffffffffffffffffffffffffffff1614156109a65760019150506109b9565b8080600101915050610924565b50600090505b919050565b60405180617d0001604052806103e890602082028038833980820191505090505090565b815481835581811115610a0957818360005260206000209182019101610a089190610a0e565b5b505050565b610a3091905b80821115610a2c576000816000905550600101610a14565b5090565b9056fea165627a7a72305820ea0c65a599f5ab1810349be22edece94b1154000b0f01d2af7c0de848a69a9590029",
  "source": "pragma solidity ^ 0.5.0;\n\ncontract bookie{\n   \n    address payable public owner;\n    \n    uint public minimumBet;\n    //uint maxBet;\n    uint public totalBetsOne;\n    uint public totalBetsTwo;\n    //uint public maxAmountOfBets = 1000;\n    \n        address payable[] public  players;\n    //teamSelected either 1 or 2\n    struct Player{\n    \n        uint amountBet;\n        uint teamSelected;\n    } \n    \n    mapping(address => Player) public playerInfo;\n    \n     function() external payable {}\n   \n    \n   constructor() public {\n      owner = msg.sender;\n      minimumBet = 100000000000000;\n    }\nfunction kill() public {\n      if(msg.sender == owner) selfdestruct(owner);\n    }\n    \n    \n    //@param - to check if player already played or not?\n    \n    function playerExist(address checkPlayer) view public  returns(bool){\n         for(uint256 i = 0; i < players.length; i++){\n         if(players[i] == checkPlayer) return true;\n      }\n      return false;\n    } \n    \n    function Bet (uint _teamSelected) public payable{\n        require(!playerExist(msg.sender));\n        require(msg.value >= minimumBet);\n        playerInfo[msg.sender].amountBet = msg.value;\n        playerInfo[msg.sender].teamSelected = _teamSelected;\n        \n        players.push(msg.sender);\n        \n        if(_teamSelected == 1)\n        {\n            totalBetsOne += msg.value;\n        }\n        \n        else if(_teamSelected == 2)\n        {\n            totalBetsTwo += msg.value;\n        }\n        \n    }\n\n//@dev creating a temporary array in memory for limited no. of winners\n  \n    function distributePrizes (uint teamWinner) public{\n        address payable[1000] memory winners;\n        \n        uint count = 0;\n        \n        uint256 LoserBet = 0;\n        \n        uint256 WinnerBet = 0;\n        \n        address add;\n        uint256 bet;\n        address payable playerAddress;\n        \n        for(uint i = 0; i < players.length; i++){\n        playerAddress = players[i];\n        if(playerInfo[playerAddress].teamSelected == teamWinner){\n        winners[count] = playerAddress;\n        count++;\n     }\n    }\n     if ( teamWinner == 1){\n         LoserBet = totalBetsTwo;\n         WinnerBet = totalBetsOne;\n      }\n      else{\n          LoserBet = totalBetsOne;\n          WinnerBet = totalBetsTwo;\n      }\n      \n      for(uint j = 0; j < count; j++){\n          // Check that the address in this fixed array is not empty\n         if(winners[j] != address(0))\n            add = winners[j];\n            bet = playerInfo[add].amountBet;\n            //Transfer the money to the user\n            winners[j].transfer((bet*(10000+(LoserBet*10000/WinnerBet)))/10000);\n      }\n       delete playerInfo[playerAddress]; // Delete all the players\n      players.length = 0; // Delete all the players array\n      LoserBet = 0; //reinitialize the bets\n      WinnerBet = 0;\n      totalBetsOne = 0;\n      totalBetsTwo = 0;\n    }\n    \n    function AmountOne() public view returns(uint256){\n       return totalBetsOne;\n   }\n   \n   function AmountTwo() public view returns(uint256){\n       return totalBetsTwo;\n   }\n    \n        \n    \n\n}",
  "sourcePath": "/home/kira/github/free-kick/contracts/bookie.sol",
  "compiler": {
    "name": "solc",
    "version": "0.5.8+commit.23d335f2.Emscripten.clang"
  },
  "schemaVersion": "3.0.11",
  "updatedAt": "2019-07-10T08:36:44.237Z",
  "devdoc": {
    "methods": {}
  },
  "userdoc": {
    "methods": {}
  }
}